{
  "contractName": "SupplyChain",
  "abi": [
    {
      "inputs": [],
      "payable": false,
      "stateMutability": "nonpayable",
      "type": "constructor"
    },
    {
      "anonymous": false,
      "inputs": [
        {
          "indexed": false,
          "internalType": "uint256",
          "name": "upc",
          "type": "uint256"
        }
      ],
      "name": "ForSale",
      "type": "event"
    },
    {
      "anonymous": false,
      "inputs": [
        {
          "indexed": false,
          "internalType": "uint256",
          "name": "upc",
          "type": "uint256"
        }
      ],
      "name": "Harvested",
      "type": "event"
    },
    {
      "anonymous": false,
      "inputs": [
        {
          "indexed": false,
          "internalType": "uint256",
          "name": "upc",
          "type": "uint256"
        }
      ],
      "name": "Packed",
      "type": "event"
    },
    {
      "anonymous": false,
      "inputs": [
        {
          "indexed": false,
          "internalType": "uint256",
          "name": "upc",
          "type": "uint256"
        }
      ],
      "name": "Processed",
      "type": "event"
    },
    {
      "anonymous": false,
      "inputs": [
        {
          "indexed": false,
          "internalType": "uint256",
          "name": "upc",
          "type": "uint256"
        }
      ],
      "name": "Purchased",
      "type": "event"
    },
    {
      "anonymous": false,
      "inputs": [
        {
          "indexed": false,
          "internalType": "uint256",
          "name": "upc",
          "type": "uint256"
        }
      ],
      "name": "Received",
      "type": "event"
    },
    {
      "anonymous": false,
      "inputs": [
        {
          "indexed": false,
          "internalType": "uint256",
          "name": "upc",
          "type": "uint256"
        }
      ],
      "name": "Shipped",
      "type": "event"
    },
    {
      "anonymous": false,
      "inputs": [
        {
          "indexed": false,
          "internalType": "uint256",
          "name": "upc",
          "type": "uint256"
        }
      ],
      "name": "Sold",
      "type": "event"
    },
    {
      "anonymous": false,
      "inputs": [
        {
          "indexed": true,
          "internalType": "address",
          "name": "oldOwner",
          "type": "address"
        },
        {
          "indexed": true,
          "internalType": "address",
          "name": "newOwner",
          "type": "address"
        }
      ],
      "name": "TransferOwnership",
      "type": "event"
    },
    {
      "constant": true,
      "inputs": [],
      "name": "isOwner",
      "outputs": [
        {
          "internalType": "bool",
          "name": "",
          "type": "bool"
        }
      ],
      "payable": false,
      "stateMutability": "view",
      "type": "function"
    },
    {
      "constant": true,
      "inputs": [],
      "name": "owner",
      "outputs": [
        {
          "internalType": "address",
          "name": "",
          "type": "address"
        }
      ],
      "payable": false,
      "stateMutability": "view",
      "type": "function"
    },
    {
      "constant": false,
      "inputs": [],
      "name": "renounceOwnership",
      "outputs": [],
      "payable": false,
      "stateMutability": "nonpayable",
      "type": "function"
    },
    {
      "constant": false,
      "inputs": [
        {
          "internalType": "address",
          "name": "newOwner",
          "type": "address"
        }
      ],
      "name": "transferOwnership",
      "outputs": [],
      "payable": false,
      "stateMutability": "nonpayable",
      "type": "function"
    },
    {
      "constant": false,
      "inputs": [],
      "name": "kill",
      "outputs": [],
      "payable": false,
      "stateMutability": "nonpayable",
      "type": "function"
    },
    {
      "constant": false,
      "inputs": [
        {
          "internalType": "uint256",
          "name": "_upc",
          "type": "uint256"
        },
        {
          "internalType": "address",
          "name": "_originFarmerID",
          "type": "address"
        },
        {
          "internalType": "string",
          "name": "_originFarmName",
          "type": "string"
        },
        {
          "internalType": "string",
          "name": "_originFarmInformation",
          "type": "string"
        },
        {
          "internalType": "string",
          "name": "_originFarmLatitude",
          "type": "string"
        },
        {
          "internalType": "string",
          "name": "_originFarmLongitude",
          "type": "string"
        },
        {
          "internalType": "string",
          "name": "_productNotes",
          "type": "string"
        }
      ],
      "name": "harvestItem",
      "outputs": [],
      "payable": false,
      "stateMutability": "nonpayable",
      "type": "function"
    },
    {
      "constant": false,
      "inputs": [
        {
          "internalType": "uint256",
          "name": "_upc",
          "type": "uint256"
        }
      ],
      "name": "processItem",
      "outputs": [],
      "payable": false,
      "stateMutability": "nonpayable",
      "type": "function"
    },
    {
      "constant": false,
      "inputs": [
        {
          "internalType": "uint256",
          "name": "_upc",
          "type": "uint256"
        }
      ],
      "name": "packItem",
      "outputs": [],
      "payable": false,
      "stateMutability": "nonpayable",
      "type": "function"
    },
    {
      "constant": false,
      "inputs": [
        {
          "internalType": "uint256",
          "name": "_upc",
          "type": "uint256"
        },
        {
          "internalType": "uint256",
          "name": "_price",
          "type": "uint256"
        }
      ],
      "name": "sellItem",
      "outputs": [],
      "payable": false,
      "stateMutability": "nonpayable",
      "type": "function"
    },
    {
      "constant": false,
      "inputs": [
        {
          "internalType": "uint256",
          "name": "_upc",
          "type": "uint256"
        }
      ],
      "name": "buyItem",
      "outputs": [],
      "payable": true,
      "stateMutability": "payable",
      "type": "function"
    },
    {
      "constant": false,
      "inputs": [
        {
          "internalType": "uint256",
          "name": "_upc",
          "type": "uint256"
        }
      ],
      "name": "shipItem",
      "outputs": [],
      "payable": false,
      "stateMutability": "nonpayable",
      "type": "function"
    },
    {
      "constant": false,
      "inputs": [
        {
          "internalType": "uint256",
          "name": "_upc",
          "type": "uint256"
        }
      ],
      "name": "receiveItem",
      "outputs": [],
      "payable": false,
      "stateMutability": "nonpayable",
      "type": "function"
    },
    {
      "constant": false,
      "inputs": [
        {
          "internalType": "uint256",
          "name": "_upc",
          "type": "uint256"
        }
      ],
      "name": "purchaseItem",
      "outputs": [],
      "payable": false,
      "stateMutability": "nonpayable",
      "type": "function"
    },
    {
      "constant": true,
      "inputs": [
        {
          "internalType": "uint256",
          "name": "_upc",
          "type": "uint256"
        }
      ],
      "name": "fetchItemBufferOne",
      "outputs": [
        {
          "internalType": "uint256",
          "name": "itemSKU",
          "type": "uint256"
        },
        {
          "internalType": "uint256",
          "name": "itemUPC",
          "type": "uint256"
        },
        {
          "internalType": "address",
          "name": "ownerID",
          "type": "address"
        },
        {
          "internalType": "address",
          "name": "originFarmerID",
          "type": "address"
        },
        {
          "internalType": "string",
          "name": "originFarmName",
          "type": "string"
        },
        {
          "internalType": "string",
          "name": "originFarmInformation",
          "type": "string"
        },
        {
          "internalType": "string",
          "name": "originFarmLatitude",
          "type": "string"
        },
        {
          "internalType": "string",
          "name": "originFarmLongitude",
          "type": "string"
        }
      ],
      "payable": false,
      "stateMutability": "view",
      "type": "function"
    },
    {
      "constant": true,
      "inputs": [
        {
          "internalType": "uint256",
          "name": "_upc",
          "type": "uint256"
        }
      ],
      "name": "fetchItemBufferTwo",
      "outputs": [
        {
          "internalType": "uint256",
          "name": "itemSKU",
          "type": "uint256"
        },
        {
          "internalType": "uint256",
          "name": "itemUPC",
          "type": "uint256"
        },
        {
          "internalType": "uint256",
          "name": "productID",
          "type": "uint256"
        },
        {
          "internalType": "string",
          "name": "productNotes",
          "type": "string"
        },
        {
          "internalType": "uint256",
          "name": "productPrice",
          "type": "uint256"
        },
        {
          "internalType": "uint256",
          "name": "itemState",
          "type": "uint256"
        },
        {
          "internalType": "address",
          "name": "distributorID",
          "type": "address"
        },
        {
          "internalType": "address",
          "name": "retailerID",
          "type": "address"
        },
        {
          "internalType": "address",
          "name": "consumerID",
          "type": "address"
        }
      ],
      "payable": false,
      "stateMutability": "view",
      "type": "function"
    }
  ],
  "bytecode": "0x608060405234801561001057600080fd5b50336000806101000a81548173ffffffffffffffffffffffffffffffffffffffff021916908373ffffffffffffffffffffffffffffffffffffffff1602179055506000809054906101000a900473ffffffffffffffffffffffffffffffffffffffff1673ffffffffffffffffffffffffffffffffffffffff16600073ffffffffffffffffffffffffffffffffffffffff167f5c486528ec3e3f0ea91181cff8116f02bfa350e03b8b6f12e00765adbb5af85c60405160405180910390a3600160028190555060018081905550612b2a806100eb6000396000f3fe6080604052600436106100e85760003560e01c80638f32d59b1161008a578063e7fb74c711610059578063e7fb74c7146109c1578063f2fde38b146109ef578063f30fc48014610a40578063f61c899a14610a7b576100e8565b80638f32d59b146105ce578063a26be999146105fd578063bdd8a6a814610638578063d38ea5bf14610986576100e8565b806366225ff9116100c657806366225ff914610184578063715018a6146102f457806377c459131461030b5780638da5cb5b14610577576100e8565b80632d923561146100ed57806341c0e1b51461013257806349dae76614610149575b600080fd5b3480156100f957600080fd5b506101306004803603604081101561011057600080fd5b810190808035906020019092919080359060200190929190505050610ab6565b005b34801561013e57600080fd5b50610147610c64565b005b34801561015557600080fd5b506101826004803603602081101561016c57600080fd5b8101908080359060200190929190505050610cc1565b005b34801561019057600080fd5b506101bd600480360360208110156101a757600080fd5b8101908080359060200190929190505050610e54565b604051808a8152602001898152602001888152602001806020018781526020018681526020018573ffffffffffffffffffffffffffffffffffffffff1673ffffffffffffffffffffffffffffffffffffffff1681526020018473ffffffffffffffffffffffffffffffffffffffff1673ffffffffffffffffffffffffffffffffffffffff1681526020018373ffffffffffffffffffffffffffffffffffffffff1673ffffffffffffffffffffffffffffffffffffffff168152602001828103825288818151815260200191508051906020019080838360005b838110156102b1578082015181840152602081019050610296565b50505050905090810190601f1680156102de5780820380516001836020036101000a031916815260200191505b509a505050505050505050505060405180910390f35b34801561030057600080fd5b5061030961142f565b005b34801561031757600080fd5b506103446004803603602081101561032e57600080fd5b81019080803590602001909291905050506114ff565b604051808981526020018881526020018773ffffffffffffffffffffffffffffffffffffffff1673ffffffffffffffffffffffffffffffffffffffff1681526020018673ffffffffffffffffffffffffffffffffffffffff1673ffffffffffffffffffffffffffffffffffffffff16815260200180602001806020018060200180602001858103855289818151815260200191508051906020019080838360005b838110156104005780820151818401526020810190506103e5565b50505050905090810190601f16801561042d5780820380516001836020036101000a031916815260200191505b50858103845288818151815260200191508051906020019080838360005b8381101561046657808201518184015260208101905061044b565b50505050905090810190601f1680156104935780820380516001836020036101000a031916815260200191505b50858103835287818151815260200191508051906020019080838360005b838110156104cc5780820151818401526020810190506104b1565b50505050905090810190601f1680156104f95780820380516001836020036101000a031916815260200191505b50858103825286818151815260200191508051906020019080838360005b83811015610532578082015181840152602081019050610517565b50505050905090810190601f16801561055f5780820380516001836020036101000a031916815260200191505b509c5050505050505050505050505060405180910390f35b34801561058357600080fd5b5061058c611ab9565b604051808273ffffffffffffffffffffffffffffffffffffffff1673ffffffffffffffffffffffffffffffffffffffff16815260200191505060405180910390f35b3480156105da57600080fd5b506105e3611ae2565b604051808215151515815260200191505060405180910390f35b34801561060957600080fd5b506106366004803603602081101561062057600080fd5b8101908080359060200190929190505050611b39565b005b34801561064457600080fd5b50610984600480360360e081101561065b57600080fd5b8101908080359060200190929190803573ffffffffffffffffffffffffffffffffffffffff169060200190929190803590602001906401000000008111156106a257600080fd5b8201836020820111156106b457600080fd5b803590602001918460018302840111640100000000831117156106d657600080fd5b91908080601f016020809104026020016040519081016040528093929190818152602001838380828437600081840152601f19601f8201169050808301925050505050505091929192908035906020019064010000000081111561073957600080fd5b82018360208201111561074b57600080fd5b8035906020019184600183028401116401000000008311171561076d57600080fd5b91908080601f016020809104026020016040519081016040528093929190818152602001838380828437600081840152601f19601f820116905080830192505050505050509192919290803590602001906401000000008111156107d057600080fd5b8201836020820111156107e257600080fd5b8035906020019184600183028401116401000000008311171561080457600080fd5b91908080601f016020809104026020016040519081016040528093929190818152602001838380828437600081840152601f19601f8201169050808301925050505050505091929192908035906020019064010000000081111561086757600080fd5b82018360208201111561087957600080fd5b8035906020019184600183028401116401000000008311171561089b57600080fd5b91908080601f016020809104026020016040519081016040528093929190818152602001838380828437600081840152601f19601f820116905080830192505050505050509192919290803590602001906401000000008111156108fe57600080fd5b82018360208201111561091057600080fd5b8035906020019184600183028401116401000000008311171561093257600080fd5b91908080601f016020809104026020016040519081016040528093929190818152602001838380828437600081840152601f19601f820116905080830192505050505050509192919290505050611c9d565b005b34801561099257600080fd5b506109bf600480360360208110156109a957600080fd5b810190808035906020019092919050505061203f565b005b6109ed600480360360208110156109d757600080fd5b81019080803590602001909291905050506121a3565b005b3480156109fb57600080fd5b50610a3e60048036036020811015610a1257600080fd5b81019080803573ffffffffffffffffffffffffffffffffffffffff169060200190929190505050612526565b005b348015610a4c57600080fd5b50610a7960048036036020811015610a6357600080fd5b8101908080359060200190929190505050612543565b005b348015610a8757600080fd5b50610ab460048036036020811015610a9e57600080fd5b81019080803590602001909291905050506126d6565b005b8160026007811115610ac457fe5b60036000838152602001908152602001600020600b0160009054906101000a900460ff166007811115610af357fe5b14610afd57600080fd5b6003600084815260200190815260200160002060020160009054906101000a900473ffffffffffffffffffffffffffffffffffffffff168073ffffffffffffffffffffffffffffffffffffffff163373ffffffffffffffffffffffffffffffffffffffff1614610bd5576040517f08c379a00000000000000000000000000000000000000000000000000000000081526004018080602001828103825260118152602001807f556e76657269666965642043616c6c657200000000000000000000000000000081525060200191505060405180910390fd5b6003806000868152602001908152602001600020600b0160006101000a81548160ff02191690836007811115610c0757fe5b02179055508260036000868152602001908152602001600020600a01819055507fa96ae0fc3224ebd79eebfe54bd130cc9cb94416cddd1f2386115e00b72532468846040518082815260200191505060405180910390a150505050565b610c6c611ab9565b73ffffffffffffffffffffffffffffffffffffffff163373ffffffffffffffffffffffffffffffffffffffff161415610cbf57610ca7611ab9565b73ffffffffffffffffffffffffffffffffffffffff16ff5b565b8060006007811115610ccf57fe5b60036000838152602001908152602001600020600b0160009054906101000a900460ff166007811115610cfe57fe5b14610d0857600080fd5b6003600083815260200190815260200160002060020160009054906101000a900473ffffffffffffffffffffffffffffffffffffffff168073ffffffffffffffffffffffffffffffffffffffff163373ffffffffffffffffffffffffffffffffffffffff1614610de0576040517f08c379a00000000000000000000000000000000000000000000000000000000081526004018080602001828103825260118152602001807f556e76657269666965642043616c6c657200000000000000000000000000000081525060200191505060405180910390fd5b600160036000858152602001908152602001600020600b0160006101000a81548160ff02191690836007811115610e1357fe5b02179055507f5afe3b1bf87069693c075da5c22a98d63d1aef98a30dbbe538d0781a98b77ee5836040518082815260200191505060405180910390a1505050565b600080600060606000806000806000610e6b612961565b600360008c8152602001908152602001600020604051806101e001604052908160008201548152602001600182015481526020016002820160009054906101000a900473ffffffffffffffffffffffffffffffffffffffff1673ffffffffffffffffffffffffffffffffffffffff1673ffffffffffffffffffffffffffffffffffffffff1681526020016003820160009054906101000a900473ffffffffffffffffffffffffffffffffffffffff1673ffffffffffffffffffffffffffffffffffffffff1673ffffffffffffffffffffffffffffffffffffffff168152602001600482018054600181600116156101000203166002900480601f016020809104026020016040519081016040528092919081815260200182805460018160011615610100020316600290048015610fe35780601f10610fb857610100808354040283529160200191610fe3565b820191906000526020600020905b815481529060010190602001808311610fc657829003601f168201915b50505050508152602001600582018054600181600116156101000203166002900480601f0160208091040260200160405190810160405280929190818152602001828054600181600116156101000203166002900480156110855780601f1061105a57610100808354040283529160200191611085565b820191906000526020600020905b81548152906001019060200180831161106857829003601f168201915b50505050508152602001600682018054600181600116156101000203166002900480601f0160208091040260200160405190810160405280929190818152602001828054600181600116156101000203166002900480156111275780601f106110fc57610100808354040283529160200191611127565b820191906000526020600020905b81548152906001019060200180831161110a57829003601f168201915b50505050508152602001600782018054600181600116156101000203166002900480601f0160208091040260200160405190810160405280929190818152602001828054600181600116156101000203166002900480156111c95780601f1061119e576101008083540402835291602001916111c9565b820191906000526020600020905b8154815290600101906020018083116111ac57829003601f168201915b5050505050815260200160088201548152602001600982018054600181600116156101000203166002900480601f0160208091040260200160405190810160405280929190818152602001828054600181600116156101000203166002900480156112755780601f1061124a57610100808354040283529160200191611275565b820191906000526020600020905b81548152906001019060200180831161125857829003601f168201915b50505050508152602001600a8201548152602001600b820160009054906101000a900460ff1660078111156112a657fe5b60078111156112b157fe5b8152602001600b820160019054906101000a900473ffffffffffffffffffffffffffffffffffffffff1673ffffffffffffffffffffffffffffffffffffffff1673ffffffffffffffffffffffffffffffffffffffff168152602001600c820160009054906101000a900473ffffffffffffffffffffffffffffffffffffffff1673ffffffffffffffffffffffffffffffffffffffff1673ffffffffffffffffffffffffffffffffffffffff168152602001600d820160009054906101000a900473ffffffffffffffffffffffffffffffffffffffff1673ffffffffffffffffffffffffffffffffffffffff1673ffffffffffffffffffffffffffffffffffffffff16815250509050806000015199508a985080610100015197508061012001519650806101400151955080610160015160078111156113ec57fe5b94508061018001519350806101a001519250806101c001519150898989898989898989995099509950995099509950995099509950509193959799909294969850565b611437611ae2565b61144057600080fd5b600073ffffffffffffffffffffffffffffffffffffffff166000809054906101000a900473ffffffffffffffffffffffffffffffffffffffff1673ffffffffffffffffffffffffffffffffffffffff167f5c486528ec3e3f0ea91181cff8116f02bfa350e03b8b6f12e00765adbb5af85c60405160405180910390a360008060006101000a81548173ffffffffffffffffffffffffffffffffffffffff021916908373ffffffffffffffffffffffffffffffffffffffff160217905550565b600080600080606080606080611513612961565b600360008b8152602001908152602001600020604051806101e001604052908160008201548152602001600182015481526020016002820160009054906101000a900473ffffffffffffffffffffffffffffffffffffffff1673ffffffffffffffffffffffffffffffffffffffff1673ffffffffffffffffffffffffffffffffffffffff1681526020016003820160009054906101000a900473ffffffffffffffffffffffffffffffffffffffff1673ffffffffffffffffffffffffffffffffffffffff1673ffffffffffffffffffffffffffffffffffffffff168152602001600482018054600181600116156101000203166002900480601f01602080910402602001604051908101604052809291908181526020018280546001816001161561010002031660029004801561168b5780601f106116605761010080835404028352916020019161168b565b820191906000526020600020905b81548152906001019060200180831161166e57829003601f168201915b50505050508152602001600582018054600181600116156101000203166002900480601f01602080910402602001604051908101604052809291908181526020018280546001816001161561010002031660029004801561172d5780601f106117025761010080835404028352916020019161172d565b820191906000526020600020905b81548152906001019060200180831161171057829003601f168201915b50505050508152602001600682018054600181600116156101000203166002900480601f0160208091040260200160405190810160405280929190818152602001828054600181600116156101000203166002900480156117cf5780601f106117a4576101008083540402835291602001916117cf565b820191906000526020600020905b8154815290600101906020018083116117b257829003601f168201915b50505050508152602001600782018054600181600116156101000203166002900480601f0160208091040260200160405190810160405280929190818152602001828054600181600116156101000203166002900480156118715780601f1061184657610100808354040283529160200191611871565b820191906000526020600020905b81548152906001019060200180831161185457829003601f168201915b5050505050815260200160088201548152602001600982018054600181600116156101000203166002900480601f01602080910402602001604051908101604052809291908181526020018280546001816001161561010002031660029004801561191d5780601f106118f25761010080835404028352916020019161191d565b820191906000526020600020905b81548152906001019060200180831161190057829003601f168201915b50505050508152602001600a8201548152602001600b820160009054906101000a900460ff16600781111561194e57fe5b600781111561195957fe5b8152602001600b820160019054906101000a900473ffffffffffffffffffffffffffffffffffffffff1673ffffffffffffffffffffffffffffffffffffffff1673ffffffffffffffffffffffffffffffffffffffff168152602001600c820160009054906101000a900473ffffffffffffffffffffffffffffffffffffffff1673ffffffffffffffffffffffffffffffffffffffff1673ffffffffffffffffffffffffffffffffffffffff168152602001600d820160009054906101000a900473ffffffffffffffffffffffffffffffffffffffff1673ffffffffffffffffffffffffffffffffffffffff1673ffffffffffffffffffffffffffffffffffffffff16815250509050806000015198508997508060400151965080606001519550806080015194508060a0015193508060c0015192508060e00151915088888888888888889850985098509850985098509850985050919395975091939597565b60008060009054906101000a900473ffffffffffffffffffffffffffffffffffffffff16905090565b60008060009054906101000a900473ffffffffffffffffffffffffffffffffffffffff1673ffffffffffffffffffffffffffffffffffffffff163373ffffffffffffffffffffffffffffffffffffffff1614905090565b8060056007811115611b4757fe5b60036000838152602001908152602001600020600b0160009054906101000a900460ff166007811115611b7657fe5b14611b8057600080fd5b336003600084815260200190815260200160002060020160006101000a81548173ffffffffffffffffffffffffffffffffffffffff021916908373ffffffffffffffffffffffffffffffffffffffff1602179055503360036000848152602001908152602001600020600c0160006101000a81548173ffffffffffffffffffffffffffffffffffffffff021916908373ffffffffffffffffffffffffffffffffffffffff160217905550600660036000848152602001908152602001600020600b0160006101000a81548160ff02191690836007811115611c5d57fe5b02179055507fa8142743f8f70a4c26f3691cf4ed59718381fb2f18070ec52be1f1022d855557826040518082815260200191505060405180910390a15050565b611ca5612961565b604051806101e0016040528060025481526020018981526020018873ffffffffffffffffffffffffffffffffffffffff1681526020018873ffffffffffffffffffffffffffffffffffffffff1681526020018781526020018681526020018581526020018481526020016002548a0181526020018381526020016000815260200160006007811115611d3357fe5b8152602001600073ffffffffffffffffffffffffffffffffffffffff168152602001600073ffffffffffffffffffffffffffffffffffffffff168152602001600073ffffffffffffffffffffffffffffffffffffffff16815250905080600360008a8152602001908152602001600020600082015181600001556020820151816001015560408201518160020160006101000a81548173ffffffffffffffffffffffffffffffffffffffff021916908373ffffffffffffffffffffffffffffffffffffffff16021790555060608201518160030160006101000a81548173ffffffffffffffffffffffffffffffffffffffff021916908373ffffffffffffffffffffffffffffffffffffffff1602179055506080820151816004019080519060200190611e61929190612a50565b5060a0820151816005019080519060200190611e7e929190612a50565b5060c0820151816006019080519060200190611e9b929190612a50565b5060e0820151816007019080519060200190611eb8929190612a50565b506101008201518160080155610120820151816009019080519060200190611ee1929190612a50565b5061014082015181600a015561016082015181600b0160006101000a81548160ff02191690836007811115611f1257fe5b021790555061018082015181600b0160016101000a81548173ffffffffffffffffffffffffffffffffffffffff021916908373ffffffffffffffffffffffffffffffffffffffff1602179055506101a082015181600c0160006101000a81548173ffffffffffffffffffffffffffffffffffffffff021916908373ffffffffffffffffffffffffffffffffffffffff1602179055506101c082015181600d0160006101000a81548173ffffffffffffffffffffffffffffffffffffffff021916908373ffffffffffffffffffffffffffffffffffffffff1602179055509050506001600254016002819055507f8e55ccfc9778ff8eba1646d765cf1982537ce0f9257054a17b48aad745250183886040518082815260200191505060405180910390a15050505050505050565b806006600781111561204d57fe5b60036000838152602001908152602001600020600b0160009054906101000a900460ff16600781111561207c57fe5b1461208657600080fd5b336003600084815260200190815260200160002060020160006101000a81548173ffffffffffffffffffffffffffffffffffffffff021916908373ffffffffffffffffffffffffffffffffffffffff1602179055503360036000848152602001908152602001600020600d0160006101000a81548173ffffffffffffffffffffffffffffffffffffffff021916908373ffffffffffffffffffffffffffffffffffffffff160217905550600760036000848152602001908152602001600020600b0160006101000a81548160ff0219169083600781111561216357fe5b02179055507f653d56639fee6b566a5c804764e9689de38645f0b733df89a36a1b7b42173dd8826040518082815260200191505060405180910390a15050565b80600360078111156121b157fe5b60036000838152602001908152602001600020600b0160009054906101000a900460ff1660078111156121e057fe5b146121ea57600080fd5b60036000838152602001908152602001600020600a015480341015612277576040517f08c379a00000000000000000000000000000000000000000000000000000000081526004018080602001828103825260198152602001807f416d6f756e742070616964206973206e6f7420656e6f7567680000000000000081525060200191505060405180910390fd5b82336003600086815260200190815260200160002060020160006101000a81548173ffffffffffffffffffffffffffffffffffffffff021916908373ffffffffffffffffffffffffffffffffffffffff1602179055503360036000868152602001908152602001600020600b0160016101000a81548173ffffffffffffffffffffffffffffffffffffffff021916908373ffffffffffffffffffffffffffffffffffffffff160217905550600460036000868152602001908152602001600020600b0160006101000a81548160ff0219169083600781111561235557fe5b02179055503360036000868152602001908152602001600020600d0160006101000a81548173ffffffffffffffffffffffffffffffffffffffff021916908373ffffffffffffffffffffffffffffffffffffffff16021790555060006003600086815260200190815260200160002060030160009054906101000a900473ffffffffffffffffffffffffffffffffffffffff1690508073ffffffffffffffffffffffffffffffffffffffff166108fc60036000888152602001908152602001600020600a01549081150290604051600060405180830381858888f19350505050158015612446573d6000803e3d6000fd5b507f92f64ca637d023f354075a4be751b169c1a8a9ccb6d33cdd0cb3520543995727856040518082815260200191505060405180910390a150600060036000838152602001908152602001600020600a015490506000813403905060036000848152602001908152602001600020600d0160009054906101000a900473ffffffffffffffffffffffffffffffffffffffff1673ffffffffffffffffffffffffffffffffffffffff166108fc829081150290604051600060405180830381858888f1935050505015801561251d573d6000803e3d6000fd5b50505050505050565b61252e611ae2565b61253757600080fd5b61254081612869565b50565b806001600781111561255157fe5b60036000838152602001908152602001600020600b0160009054906101000a900460ff16600781111561258057fe5b1461258a57600080fd5b6003600083815260200190815260200160002060020160009054906101000a900473ffffffffffffffffffffffffffffffffffffffff168073ffffffffffffffffffffffffffffffffffffffff163373ffffffffffffffffffffffffffffffffffffffff1614612662576040517f08c379a00000000000000000000000000000000000000000000000000000000081526004018080602001828103825260118152602001807f556e76657269666965642043616c6c657200000000000000000000000000000081525060200191505060405180910390fd5b600260036000858152602001908152602001600020600b0160006101000a81548160ff0219169083600781111561269557fe5b02179055507f9b3b66e2380b690bae22c73ef1428fb0c91e72fe14a4b6defa13035214187aff836040518082815260200191505060405180910390a1505050565b80600460078111156126e457fe5b60036000838152602001908152602001600020600b0160009054906101000a900460ff16600781111561271357fe5b1461271d57600080fd5b6003600083815260200190815260200160002060020160009054906101000a900473ffffffffffffffffffffffffffffffffffffffff168073ffffffffffffffffffffffffffffffffffffffff163373ffffffffffffffffffffffffffffffffffffffff16146127f5576040517f08c379a00000000000000000000000000000000000000000000000000000000081526004018080602001828103825260118152602001807f556e76657269666965642043616c6c657200000000000000000000000000000081525060200191505060405180910390fd5b600560036000858152602001908152602001600020600b0160006101000a81548160ff0219169083600781111561282857fe5b02179055507ff00b9a5725b80c54016f42114f6ed7792d22eecb116011c4afac29c57bef6c95836040518082815260200191505060405180910390a1505050565b600073ffffffffffffffffffffffffffffffffffffffff168173ffffffffffffffffffffffffffffffffffffffff1614156128a357600080fd5b8073ffffffffffffffffffffffffffffffffffffffff166000809054906101000a900473ffffffffffffffffffffffffffffffffffffffff1673ffffffffffffffffffffffffffffffffffffffff167f5c486528ec3e3f0ea91181cff8116f02bfa350e03b8b6f12e00765adbb5af85c60405160405180910390a3806000806101000a81548173ffffffffffffffffffffffffffffffffffffffff021916908373ffffffffffffffffffffffffffffffffffffffff16021790555050565b604051806101e001604052806000815260200160008152602001600073ffffffffffffffffffffffffffffffffffffffff168152602001600073ffffffffffffffffffffffffffffffffffffffff16815260200160608152602001606081526020016060815260200160608152602001600081526020016060815260200160008152602001600060078111156129f357fe5b8152602001600073ffffffffffffffffffffffffffffffffffffffff168152602001600073ffffffffffffffffffffffffffffffffffffffff168152602001600073ffffffffffffffffffffffffffffffffffffffff1681525090565b828054600181600116156101000203166002900490600052602060002090601f016020900481019282601f10612a9157805160ff1916838001178555612abf565b82800160010185558215612abf579182015b82811115612abe578251825591602001919060010190612aa3565b5b509050612acc9190612ad0565b5090565b612af291905b80821115612aee576000816000905550600101612ad6565b5090565b9056fea265627a7a72315820f8c853bcf46bcf165bd762dcf18121cd1cc5841c6bde4fa5a8791dc02087e82a64736f6c63430005100032",
  "source": "// SPDX-License-Identifier: MIT\npragma solidity >=0.4.22 <0.8.0;\n\nimport \"../coffeecore/Ownable.sol\";\nimport \"../coffeeaccesscontrol/FarmerRole.sol\";\n\n// Define a contract 'Supplychain'\ncontract SupplyChain is Ownable{\n\n  // Define a variable called 'upc' for Universal Product Code (UPC)\n  uint  upc;\n\n  // Define a variable called 'sku' for Stock Keeping Unit (SKU)\n  uint  sku;\n\n  // Define a public mapping 'items' that maps the UPC to an Item.\n  mapping (uint => Item) items;\n\n  // Define a public mapping 'itemsHistory' that maps the UPC to an array of TxHash, \n  // that track its journey through the supply chain -- to be sent from DApp.\n  mapping (uint => string[]) itemsHistory;\n  \n  // Define enum 'State' with the following values:\n  enum State \n  { \n    Harvested,  // 0\n    Processed,  // 1\n    Packed,     // 2\n    ForSale,    // 3\n    Sold,       // 4\n    Shipped,    // 5\n    Received,   // 6\n    Purchased   // 7\n    }\n\n  State constant defaultState = State.Harvested;\n\n  // Define a struct 'Item' with the following fields:\n  struct Item {\n    uint    sku;  // Stock Keeping Unit (SKU)\n    uint    upc; // Universal Product Code (UPC), generated by the Farmer, goes on the package, can be verified by the Consumer\n    address ownerID;  // Metamask-Ethereum address of the current owner as the product moves through 8 stages\n    address originFarmerID; // Metamask-Ethereum address of the Farmer\n    string  originFarmName; // Farmer Name\n    string  originFarmInformation;  // Farmer Information\n    string  originFarmLatitude; // Farm Latitude\n    string  originFarmLongitude;  // Farm Longitude\n    uint    productID;  // Product ID potentially a combination of upc + sku\n    string  productNotes; // Product Notes\n    uint    productPrice; // Product Price\n    State   itemState;  // Product State as represented in the enum above\n    address distributorID;  // Metamask-Ethereum address of the Distributor\n    address retailerID; // Metamask-Ethereum address of the Retailer\n    address payable consumerID; // Metamask-Ethereum address of the Consumer\n  }\n\n  // Define 8 events with the same 8 state values and accept 'upc' as input argument\n  event Harvested(uint upc);\n  event Processed(uint upc);\n  event Packed(uint upc);\n  event ForSale(uint upc);\n  event Sold(uint upc);\n  event Shipped(uint upc);\n  event Received(uint upc);\n  event Purchased(uint upc);\n\n  // Define a modifer that verifies the Caller\n  modifier verifyCaller (address _address) {\n    require(msg.sender == _address, \"Unverified Caller\"); \n    _;\n  }\n\n  // Define a modifier that checks if the paid amount is sufficient to cover the price\n  modifier paidEnough(uint _price) { \n    require(msg.value >= _price, \"Amount paid is not enough\"); \n    _;\n  }\n  \n  // Define a modifier that checks the price and refunds the remaining balance\n  modifier checkValue(uint _upc) {\n    _;\n    uint _price = items[_upc].productPrice;\n    uint amountToReturn = msg.value - _price;\n    items[_upc].consumerID.transfer(amountToReturn);\n  }\n\n  // Define a modifier that checks if an item.state of a upc is Harvested\n  modifier harvested(uint _upc) {\n    require(items[_upc].itemState == State.Harvested);\n    _;\n  }\n\n  // Define a modifier that checks if an item.state of a upc is Processed\n  modifier processed(uint _upc) {\n    require(items[_upc].itemState == State.Processed); \n    _;\n  }\n  \n  // Define a modifier that checks if an item.state of a upc is Packed\n  modifier packed(uint _upc) {\n    require(items[_upc].itemState == State.Packed);\n    _;\n  }\n\n  // Define a modifier that checks if an item.state of a upc is ForSale\n  modifier forSale(uint _upc) {\n    require(items[_upc].itemState == State.ForSale);\n    _;\n  }\n\n  // Define a modifier that checks if an item.state of a upc is Sold\n  modifier sold(uint _upc) {\n    require(items[_upc].itemState == State.Sold);\n    _;\n  }\n  \n  // Define a modifier that checks if an item.state of a upc is Shipped\n  modifier shipped(uint _upc) {\n    require(items[_upc].itemState == State.Shipped);\n    _;\n  }\n\n  // Define a modifier that checks if an item.state of a upc is Received\n  modifier received(uint _upc) {\n    require(items[_upc].itemState == State.Received);\n    _;\n  }\n\n  // Define a modifier that checks if an item.state of a upc is Purchased\n  modifier purchased(uint _upc) {\n    require(items[_upc].itemState == State.Purchased);\n    _;\n  }\n\n  // In the constructor set 'owner' to the address that instantiated the contract\n  // and set 'sku' to 1\n  // and set 'upc' to 1\n  constructor() Ownable() public {\n    //owner = msg.sender;\n    sku = 1;\n    upc = 1;\n  }\n\n  // Define a function 'kill' if required\n  function kill() public {\n    if (msg.sender == owner()) {\n      selfdestruct(address(uint160(owner())));\n    }\n  }\n\n  // Define a function 'harvestItem' that allows a farmer to mark an item 'Harvested'\n  function harvestItem(uint _upc, address _originFarmerID, string memory _originFarmName, \n  string memory _originFarmInformation, string memory _originFarmLatitude, \n  string memory _originFarmLongitude, string memory _productNotes) public \n  {\n    // Add the new item as part of Harvest\n    Item memory newHarvestedItem = Item(sku, _upc,  _originFarmerID, _originFarmerID, _originFarmName, _originFarmInformation,  _originFarmLatitude, _originFarmLongitude, (_upc + sku), _productNotes, 0, State.Harvested, address(0x0), address(0x0), address(0x0)); \n    items[_upc] = newHarvestedItem; \n\n    // Increment sku\n    sku = sku + 1;\n    \n    // Emit the appropriate event\n    emit Harvested(_upc);\n  }\n\n  // Define a function 'processtItem' that allows a farmer to mark an item 'Processed'\n  function processItem(uint _upc) public  \n  // Call modifier to check if upc has passed previous supply chain stage\n  harvested(_upc)\n  // Call modifier to verify caller of this function\n  verifyCaller (items[_upc].ownerID)\n  {\n    // Update the appropriate fields\n    items[_upc].itemState = State.Processed; \n\n    // Emit the appropriate event\n    emit Processed(_upc); \n  }\n\n  // Define a function 'packItem' that allows a farmer to mark an item 'Packed'\n  function packItem(uint _upc) public \n  // Call modifier to check if upc has passed previous supply chain stage\n  processed(_upc)\n  // Call modifier to verify caller of this function\n  verifyCaller (items[_upc].ownerID)\n  {\n    // Update the appropriate fields\n    items[_upc].itemState = State.Packed; \n    // Emit the appropriate event\n    emit Packed(_upc); \n  }\n\n  // Define a function 'sellItem' that allows a farmer to mark an item 'ForSale'\n  function sellItem(uint _upc, uint _price) public \n  // Call modifier to check if upc has passed previous supply chain stage\n  packed(_upc)\n  // Call modifier to verify caller of this function\n  verifyCaller (items[_upc].ownerID)\n  {\n    // Update the appropriate fields\n    items[_upc].itemState = State.ForSale; \n    items[_upc].productPrice = _price; \n    \n    // Emit the appropriate event\n    emit ForSale(_upc);\n  }\n\n  // Define a function 'buyItem' that allows the disributor to mark an item 'Sold'\n  // Use the above defined modifiers to check if the item is available for sale, if the buyer has paid enough, \n  // and any excess ether sent is refunded back to the buyer\n  function buyItem(uint _upc) public payable \n    // Call modifier to check if upc has passed previous supply chain stage\n    forSale(_upc)\n    // Call modifer to check if buyer has paid enough\n    paidEnough(items[_upc].productPrice)\n    // Call modifer to send any excess ether back to buyer\n    checkValue(_upc)\n    {\n    \n    // Update the appropriate fields - ownerID, distributorID, itemState\n    items[_upc].ownerID = msg.sender; \n    items[_upc].distributorID = msg.sender; \n    items[_upc].itemState = State.Sold; \n    items[_upc].consumerID = msg.sender; \n\n    // Transfer money to farmer\n    address payable farmerAddress = address(uint160(items[_upc].originFarmerID)); \n    farmerAddress.transfer(items[_upc].productPrice); \n    \n    // emit the appropriate event\n    emit Sold(_upc);    \n  }\n\n  // Define a function 'shipItem' that allows the distributor to mark an item 'Shipped'\n  // Use the above modifers to check if the item is sold\n  function shipItem(uint _upc) public \n    // Call modifier to check if upc has passed previous supply chain stage\n    sold(_upc)\n    // Call modifier to verify caller of this function\n    verifyCaller (items[_upc].ownerID)\n    {\n    // Update the appropriate fields\n    items[_upc].itemState = State.Shipped; \n\n    // Emit the appropriate event\n    emit Shipped(_upc);\n  }\n\n  // Define a function 'receiveItem' that allows the retailer to mark an item 'Received'\n  // Use the above modifiers to check if the item is shipped\n  function receiveItem(uint _upc) public \n    // Call modifier to check if upc has passed previous supply chain stage\n    shipped(_upc)\n    \n    // Access Control List enforced by calling Smart Contract / DApp\n    {\n    // Update the appropriate fields - ownerID, retailerID, itemState\n    items[_upc].ownerID = msg.sender; \n    items[_upc].retailerID = msg.sender; \n    items[_upc].itemState = State.Received; \n    // Emit the appropriate event\n    emit Received(_upc); \n  }\n\n  // Define a function 'purchaseItem' that allows the consumer to mark an item 'Purchased'\n  // Use the above modifiers to check if the item is received\n  function purchaseItem(uint _upc) public \n    // Call modifier to check if upc has passed previous supply chain stage\n    received(_upc)\n    // Access Control List enforced by calling Smart Contract / DApp\n    {\n    // Update the appropriate fields - ownerID, consumerID, itemState\n    items[_upc].ownerID = msg.sender;\n    items[_upc].consumerID = msg.sender;\n    items[_upc].itemState = State.Purchased;\n    \n    // Emit the appropriate event\n    emit Purchased(_upc); \n  }\n\n  // Define a function 'fetchItemBufferOne' that fetches the data\n  function fetchItemBufferOne(uint _upc) public view returns \n  (\n  uint    itemSKU,\n  uint    itemUPC,\n  address ownerID,\n  address originFarmerID,\n  string memory originFarmName,\n  string memory  originFarmInformation,\n  string memory  originFarmLatitude,\n  string memory  originFarmLongitude\n  ) \n  {\n  // Assign values to the 8 parameters\n  Item memory myItem = items[_upc]; \n\n  itemSKU = myItem.sku; \n  itemUPC = _upc; \n  ownerID = myItem.ownerID;\n  originFarmerID = myItem.originFarmerID;\n  originFarmName = myItem.originFarmName;\n  originFarmInformation = myItem.originFarmInformation;\n  originFarmLatitude = myItem.originFarmLatitude;\n  originFarmLongitude = myItem.originFarmLongitude;\n\n  return \n  (\n  itemSKU,\n  itemUPC,\n  ownerID,\n  originFarmerID,\n  originFarmName,\n  originFarmInformation,\n  originFarmLatitude,\n  originFarmLongitude\n  );\n  }\n\n  // Define a function 'fetchItemBufferTwo' that fetches the data\n  function fetchItemBufferTwo(uint _upc) public view returns \n  (\n  uint    itemSKU,\n  uint    itemUPC,\n  uint    productID,\n  string memory  productNotes,\n  uint    productPrice,\n  uint    itemState,\n  address distributorID,\n  address retailerID,\n  address consumerID\n  ) \n  {\n    // Assign values to the 9 parameters\n    Item memory myItem = items[_upc]; \n\n    itemSKU = myItem.sku; \n    itemUPC = _upc;\n    productID = myItem.productID;\n    productNotes = myItem.productNotes;\n    productPrice = myItem.productPrice;\n    itemState = uint256(myItem.itemState);\n    distributorID = myItem.distributorID;\n    retailerID = myItem.retailerID;\n    consumerID = myItem.consumerID;\n    \n  return \n  (\n  itemSKU,\n  itemUPC,\n  productID,\n  productNotes,\n  productPrice,\n  itemState,\n  distributorID,\n  retailerID,\n  consumerID\n  );\n  }\n}\n",
  "sourcePath": "C:/Users/Dell i7/OneDrive/Documentos/BlockchainNano/SupplyChainProject-Udacity/myCoffeeSupplyChain/contracts/coffeebase/SupplyChain.sol",
  "compiler": {
    "name": "solc",
    "version": "0.5.16+commit.9c3226ce.Emscripten.clang"
  },
  "schemaVersion": "3.3.0",
  "updatedAt": "2020-11-10T04:06:44.880Z",
  "devdoc": {
    "methods": {}
  },
  "userdoc": {
    "methods": {
      "isOwner()": {
        "notice": "Check if the calling address is the owner of the contract"
      },
      "owner()": {
        "notice": "Look up the address of the owner"
      },
      "renounceOwnership()": {
        "notice": "Define a function to renounce ownerhip"
      },
      "transferOwnership(address)": {
        "notice": "Define a public function to transfer ownership"
      }
    }
  }
}